:100000000C9446000C9465000C9465000C946500FB
:100010000C9465000C9465000C9465000C946500CC
:100020000C9465000C9465000C9465000C946500BC
:100030000C9465000C940C010C9465000C94650004
:100040000C9465000C9465000C9465000C9465009C
:100050000C9465000C9465000C9465000C9465008C
:100060000C9465000C9465000C9465000C9465007C
:100070000C9465000C9465000C9465000C9465006C
:100080000C9465000C9465000C94650011241FBE4F
:10009000CFEFD0E4DEBFCDBF11E0A0E0B1E0EEEAEB
:1000A000F4E000E00BBF02C007900D92A231B1074F
:1000B000D9F721E0A2E1B1E001C01D92A931B20758
:1000C000E1F70E9429020C9455020C940000CF9392
:1000D000DF9300D01F92CDB7DEB789837B836A831D
:1000E00089818A3031F48A819B81BC018DE00E9434
:1000F000670080EC90E0FC018081882F90E08072A6
:100100009927892BB1F386EC90E02981FC012083AB
:1001100080E090E00F900F900F90DF91CF910895C5
:10012000CF93DF9300D000D0CDB7DEB769837A8359
:100130008B839C8389819A81AB81BC8180930E01E2
:1001400090930F01A0931001B093110180910E01C3
:1001500090910F01A0911001B091110180931301B2
:1001600090931401A0931501B093160100000F9015
:100170000F900F900F90DF91CF910895CF93DF9361
:10018000CDB7DEB781E890E02BE0FC01208388E862
:1001900090E02DE730E0FC01318320838FE690E092
:1001A00022E0FC01208384E890E0FC0111821082AF
:1001B00080910E0190910F01A0911001B091110159
:1001C0008093130190931401A0931501B09316012D
:1001D0008FE590E02FE530E0F90120812068FC01F7
:1001E00020830000DF91CF910895CF93DF93CDB7A7
:1001F000DEB781E890E0FC0110820000DF91CF9132
:100200000895CF93DF93CDB7DEB781E080931201DD
:100210000000DF91CF9108951F920F9200905F0030
:100220000F92112400905B000F922F933F934F93F6
:100230005F936F937F938F939F93AF93BF93EF934E
:10024000FF93CF93DF93CDB7DEB7809113019091E9
:100250001401A0911501B09116010197A109B109EE
:100260008093130190931401A0931501B09316018C
:100270008091130190911401A0911501B091160184
:10028000892B8A2B8B2B91F40E94010180910E0106
:1002900090910F01A0911001B09111018093130171
:1002A00090931401A0931501B09316010000DF9103
:1002B000CF91FF91EF91BF91AF919F918F917F91DE
:1002C0006F915F914F913F912F910F9000925B0042
:1002D0000F9000925F000F901F901895CF93DF93BF
:1002E000CDB7DEB78091170190911801823091054A
:1002F000A1F18330910528F4009759F0019781F01E
:100300009EC08330910509F445C0049709F45FC08D
:1003100096C081E090E0909318018093170195C0FA
:1003200085E290E021E0FC01208380E290E0FC0186
:100330008081882F90E081709927892B39F484E09F
:1003400090E090931801809317017FC082E090E0C5
:10035000909318018093170178C085E290E022E025
:10036000FC01208380E290E0FC018081882F90E0F6
:1003700081709927892B39F484E090E090931801DB
:100380008093170162C083E090E0909318018093FE
:1003900017015BC085E290E024E0FC01208380E24D
:1003A00090E0FC018081882F90E081709927892B53
:1003B00039F484E090E0909318018093170145C0D0
:1003C00081E090E090931801809317013EC080E295
:1003D00090E0FC018081882F90E081709927892B23
:1003E00039F583E290E0FC018081813039F482E0CC
:1003F00090E0909318018093170126C083E290E06B
:10040000FC018081823039F483E090E09093180100
:100410008093170119C083E290E0FC018081843051
:1004200099F481E090E090931801809317010CC03B
:1004300084E090E0909318018093170105C010921A
:1004400018011092170101C000000000DF91CF9148
:100450000895CF93DF93CDB7DEB781E290E0FC0142
:10046000108282E290E02FEFFC01208384E290E092
:100470002FEFFC01208385E290E0FC0110826CE20A
:1004800071E080E090E00E9490000E94BE00109217
:100490001801109217010E946E0100008091120154
:0E04A0008823E1F310921201F6CFF894FFCFFB
:1004AE0000000002000000006700000000000100D4
:0204BE0000003C
:00000001FF
