:100000000C9446000C9465000C9465000C946500FB
:100010000C9465000C9465000C9465000C946500CC
:100020000C9465000C9465000C9465000C946500BC
:100030000C9465000C940C010C9465000C94650004
:100040000C9465000C9465000C9465000C9465009C
:100050000C9465000C9465000C9465000C9465008C
:100060000C9465000C9465000C9465000C9465007C
:100070000C9465000C9465000C9465000C9465006C
:100080000C9465000C9465000C94650011241FBE4F
:10009000CFEFD0E4DEBFCDBF11E0A0E0B1E0ECE0F7
:1000A000F5E000E00BBF02C007900D92A231B1074E
:1000B000D9F721E0A2E1B1E001C01D92AA31B20757
:1000C000E1F70E9458020C9484020C940000CF9334
:1000D000DF9300D01F92CDB7DEB789837B836A831D
:1000E00089818A3031F48A819B81BC018DE00E9434
:1000F000670080EC90E0FC018081882F90E08072A6
:100100009927892BB1F386EC90E02981FC012083AB
:1001100080E090E00F900F900F90DF91CF910895C5
:10012000CF93DF9300D000D0CDB7DEB769837A8359
:100130008B839C8389819A81AB81BC8180930E01E2
:1001400090930F01A0931001B093110180910E01C3
:1001500090910F01A0911001B091110180931301B2
:1001600090931401A0931501B093160100000F9015
:100170000F900F900F90DF91CF910895CF93DF9361
:10018000CDB7DEB781E890E02BE0FC01208388E862
:1001900090E02DE730E0FC01318320838FE690E092
:1001A00022E0FC01208384E890E0FC0111821082AF
:1001B00080910E0190910F01A0911001B091110159
:1001C0008093130190931401A0931501B09316012D
:1001D0008FE590E02FE530E0F90120812068FC01F7
:1001E00020830000DF91CF910895CF93DF93CDB7A7
:1001F000DEB781E890E0FC0110820000DF91CF9132
:100200000895CF93DF93CDB7DEB781E080931201DD
:100210000000DF91CF9108951F920F9200905F0030
:100220000F92112400905B000F922F933F934F93F6
:100230005F936F937F938F939F93AF93BF93EF934E
:10024000FF93CF93DF93CDB7DEB7809113019091E9
:100250001401A0911501B09116010197A109B109EE
:100260008093130190931401A0931501B09316018C
:100270008091130190911401A0911501B091160184
:10028000892B8A2B8B2B91F40E94010180910E0106
:1002900090910F01A0911001B09111018093130171
:1002A00090931401A0931501B09316010000DF9103
:1002B000CF91FF91EF91BF91AF919F918F917F91DE
:1002C0006F915F914F913F912F910F9000925B0042
:1002D0000F9000925F000F901F901895CF93DF93BF
:1002E000CDB7DEB780911801909119018230910548
:1002F00039F18330910528F4009779F00197A1F046
:10030000CEC08430910509F4A9C08430910508F469
:100310008FC0059709F4B8C0C2C081E090E0909307
:10032000190180931801C0C085E290E027E0FC012C
:10033000208382E090E09093190180931801B4C06B
:1003400080E290E0FC018081882F90E0809590957C
:10035000837099270197F9F4909117018DEC989F7C
:10036000812D1124869586958695880F282F220F3A
:10037000220F820FF92FF81B8F2F882361F48091B1
:1003800017018F5F8093170183E090E0909319012C
:10039000809318014CC080E290E0FC018081882F9E
:1003A00090E080959095837099270297F9F4909149
:1003B00017018DEC989F812D112486958695869541
:1003C000880F282F220F220F820FF92FF81B8F2F53
:1003D000882361F4809117018F5F8093170184E077
:1003E00090E0909319018093180121C080E290E081
:1003F000FC018081882F90E08095909583709927EB
:10040000039761F4809117018F5F8093170185E056
:1004100090E0909319018093180146C01092170143
:1004200082E090E090931901809318013DC03CC098
:1004300083E290E0FC018081893048F485E290E01D
:1004400023E230E0F90120812F5FFC01208382E06C
:1004500090E0909319018093180126C083E290E008
:10046000FC018081882349F085E290E023E230E0BE
:10047000F90120812150FC01208382E090E09093DB
:1004800019018093180110C085E290E0FC011082F0
:1004900082E090E0909319018093180105C01092BA
:1004A00019011092180100000000DF91CF9108950A
:1004B000CF93DF93CDB7DEB781E290E0FC011082ED
:1004C00082E290E02FEFFC01208384E290E02FEFA6
:1004D000FC01208385E290E0FC01108268EE73E06D
:1004E00080E090E00E9490000E94BE0010921901EE
:1004F000109218010E946E01000080911201882361
:0C050000E1F310921201F6CFF894FFCF47
:10050C000000000200000000670000000000010075
:02051C000000DD
:00000001FF
